{
    "abi": [
        {
            "anonymous": false,
            "inputs": [
                {
                    "indexed": true,
                    "internalType": "address",
                    "name": "contractAddress",
                    "type": "address"
                },
                {
                    "indexed": false,
                    "internalType": "address",
                    "name": "userAddress",
                    "type": "address"
                }
            ],
            "name": "AntiCheatCreated",
            "type": "event"
        },
        {
            "inputs": [
                {
                    "internalType": "address",
                    "name": "_pool",
                    "type": "address"
                },
                {
                    "internalType": "bytes",
                    "name": "_worldId",
                    "type": "bytes"
                },
                {
                    "internalType": "address",
                    "name": "_validatorWalletAddress",
                    "type": "address"
                }
            ],
            "name": "deployAntiCheatL2",
            "outputs": [
                {
                    "internalType": "address",
                    "name": "",
                    "type": "address"
                }
            ],
            "stateMutability": "nonpayable",
            "type": "function"
        }
    ],
    "bytecode": {
        "object": "0x608060405234801561001057600080fd5b506109f2806100206000396000f3fe608060405234801561001057600080fd5b506004361061002b5760003560e01c80639299547a14610030575b600080fd5b61004361003e366004610121565b61005f565b6040516001600160a01b03909116815260200160405180910390f35b600080848484604051610071906100e2565b61007d939291906101f3565b604051809103906000f080158015610099573d6000803e3d6000fd5b506040513381529091506001600160a01b038216907e0d031b4c207eaee8382815f0d0d6ce1100e171bcb496cd42d704b1f63e01eb9060200160405180910390a2949350505050565b6107608061025d83390190565b80356001600160a01b038116811461010657600080fd5b919050565b634e487b7160e01b600052604160045260246000fd5b60008060006060848603121561013657600080fd5b61013f846100ef565b9250602084013567ffffffffffffffff8082111561015c57600080fd5b818601915086601f83011261017057600080fd5b8135818111156101825761018261010b565b604051601f8201601f19908116603f011681019083821181831017156101aa576101aa61010b565b816040528281528960208487010111156101c357600080fd5b8260208601602083013760006020848301015280965050505050506101ea604085016100ef565b90509250925092565b600060018060a01b0380861683526020606081850152855180606086015260005b8181101561023057878101830151868201608001528201610214565b506000608082870101526080601f19601f8301168601019350505080841660408401525094935050505056fe60c060405234801561001057600080fd5b5060405161076038038061076083398101604081905261002f916100e1565b600061003b8382610255565b506001600160a01b0380821660a05283166080819052604051636f76f2bb60e01b8152636f76f2bb90610075906000908590600401610314565b600060405180830381600087803b15801561008f57600080fd5b505af11580156100a3573d6000803e3d6000fd5b505050505050506103b0565b80516001600160a01b03811681146100c657600080fd5b919050565b634e487b7160e01b600052604160045260246000fd5b6000806000606084860312156100f657600080fd5b6100ff846100af565b602085810151919450906001600160401b038082111561011e57600080fd5b818701915087601f83011261013257600080fd5b815181811115610144576101446100cb565b604051601f8201601f19908116603f0116810190838211818310171561016c5761016c6100cb565b816040528281528a8684870101111561018457600080fd5b600093505b828410156101a65784840186015181850187015292850192610189565b60008684830101528097505050505050506101c3604085016100af565b90509250925092565b600181811c908216806101e057607f821691505b60208210810361020057634e487b7160e01b600052602260045260246000fd5b50919050565b601f82111561025057600081815260208120601f850160051c8101602086101561022d5750805b601f850160051c820191505b8181101561024c57828155600101610239565b5050505b505050565b81516001600160401b0381111561026e5761026e6100cb565b6102828161027c84546101cc565b84610206565b602080601f8311600181146102b7576000841561029f5750858301515b600019600386901b1c1916600185901b17855561024c565b600085815260208120601f198616915b828110156102e6578886015182559484019460019091019084016102c7565b50858210156103045787850151600019600388901b60f8161c191681555b5050505050600190811b01905550565b604081526000808454610326816101cc565b8060408601526060600180841660008114610348576001811461036257610393565b60ff1985168884015283151560051b880183019550610393565b8960005260208060002060005b8681101561038a5781548b820187015290840190820161036f565b8a018501975050505b505050506001600160a01b03851660208501525090509392505050565b60805160a0516103866103da600039600060eb0152600081816061015261012401526103866000f3fe6080604052600436106100435760003560e01c806316f0115b1461004f57806339cb87c4146100a0578063753e9ef0146100b7578063bf564d57146100d957600080fd5b3661004a57005b600080fd5b34801561005b57600080fd5b506100837f000000000000000000000000000000000000000000000000000000000000000081565b6040516001600160a01b0390911681526020015b60405180910390f35b3480156100ac57600080fd5b506100b561010d565b005b3480156100c357600080fd5b506100cc61018e565b604051610097919061021c565b3480156100e557600080fd5b506100837f000000000000000000000000000000000000000000000000000000000000000081565b6040516319b4a48d60e01b81526001600160a01b037f000000000000000000000000000000000000000000000000000000000000000016906319b4a48d9061015a906000906004016102a4565b600060405180830381600087803b15801561017457600080fd5b505af1158015610188573d6000803e3d6000fd5b50505050565b6000805461019b9061026a565b80601f01602080910402602001604051908101604052809291908181526020018280546101c79061026a565b80156102145780601f106101e957610100808354040283529160200191610214565b820191906000526020600020905b8154815290600101906020018083116101f757829003601f168201915b505050505081565b600060208083528351808285015260005b818110156102495785810183015185820160400152820161022d565b506000604082860101526040601f19601f8301168501019250505092915050565b600181811c9082168061027e57607f821691505b60208210810361029e57634e487b7160e01b600052602260045260246000fd5b50919050565b600060208083526000845481600182811c9150808316806102c657607f831692505b85831081036102e357634e487b7160e01b85526022600452602485fd5b878601838152602001818015610300576001811461031657610341565b60ff198616825284151560051b82019650610341565b60008b81526020902060005b8681101561033b57815484820152908501908901610322565b83019750505b5094999850505050505050505056fea2646970667358221220906beee0ce90862520073523eda09336a34ef8f37cd861ec8e6c0e84b076c3fb64736f6c63430008130033a26469706673582212200b8de4ba3e71f9ff79215e55732a1404615c29200eb79501e9ac708ad7e6c94264736f6c63430008130033",
        "linkReferences": {}
    },
    "methodIdentifiers": {
        "deployAntiCheatL2(address,bytes,address)": "9299547a"
    },
    "id": 37
}